{
  "_format": "hh-sol-artifact-1",
  "contractName": "Wallet",
  "sourceName": "contracts/Wallet.sol",
  "abi": [
    {
      "stateMutability": "payable",
      "type": "fallback"
    },
    {
      "inputs": [],
      "name": "getBalance",
      "outputs": [
        {
          "internalType": "uint256",
          "name": "",
          "type": "uint256"
        }
      ],
      "stateMutability": "view",
      "type": "function"
    },
    {
      "inputs": [
        {
          "internalType": "address payable",
          "name": "_to",
          "type": "address"
        },
        {
          "internalType": "uint256",
          "name": "_amount",
          "type": "uint256"
        }
      ],
      "name": "withdrawMoney",
      "outputs": [],
      "stateMutability": "nonpayable",
      "type": "function"
    },
    {
      "stateMutability": "payable",
      "type": "receive"
    }
  ],
  "bytecode": "0x608060405234801561001057600080fd5b50610492806100206000396000f3fe60806040526004361061002d5760003560e01c806312065fe01461008a578063f274c897146100b557610088565b3661008857346000803373ffffffffffffffffffffffffffffffffffffffff1673ffffffffffffffffffffffffffffffffffffffff1681526020019081526020016000206000828254610080919061027e565b925050819055005b005b34801561009657600080fd5b5061009f6100de565b6040516100ac91906102c1565b60405180910390f35b3480156100c157600080fd5b506100dc60048036038101906100d7919061036b565b610124565b005b60008060003373ffffffffffffffffffffffffffffffffffffffff1673ffffffffffffffffffffffffffffffffffffffff16815260200190815260200160002054905090565b6000803373ffffffffffffffffffffffffffffffffffffffff1673ffffffffffffffffffffffffffffffffffffffff168152602001908152602001600020548111156101a5576040517f08c379a000000000000000000000000000000000000000000000000000000000815260040161019c90610408565b60405180910390fd5b806000803373ffffffffffffffffffffffffffffffffffffffff1673ffffffffffffffffffffffffffffffffffffffff16815260200190815260200160002060008282546101f39190610428565b925050819055508173ffffffffffffffffffffffffffffffffffffffff166108fc829081150290604051600060405180830381858888f19350505050158015610240573d6000803e3d6000fd5b505050565b6000819050919050565b7f4e487b7100000000000000000000000000000000000000000000000000000000600052601160045260246000fd5b600061028982610245565b915061029483610245565b92508282019050808211156102ac576102ab61024f565b5b92915050565b6102bb81610245565b82525050565b60006020820190506102d660008301846102b2565b92915050565b600080fd5b600073ffffffffffffffffffffffffffffffffffffffff82169050919050565b600061030c826102e1565b9050919050565b61031c81610301565b811461032757600080fd5b50565b60008135905061033981610313565b92915050565b61034881610245565b811461035357600080fd5b50565b6000813590506103658161033f565b92915050565b60008060408385031215610382576103816102dc565b5b60006103908582860161032a565b92505060206103a185828601610356565b9150509250929050565b600082825260208201905092915050565b7f4e6f7420656e6f756768742066756e6473000000000000000000000000000000600082015250565b60006103f26011836103ab565b91506103fd826103bc565b602082019050919050565b60006020820190508181036000830152610421816103e5565b9050919050565b600061043382610245565b915061043e83610245565b92508282039050818111156104565761045561024f565b5b9291505056fea26469706673582212204cb5dc409d41f5452b2584dcc120af853de262c01e10089f5b65ec5a275f1f8b64736f6c63430008120033",
  "linkReferences": {},
  "deployedLinkReferences": {}
}