{
  "_format": "hh-sol-artifact-1",
  "contractName": "Wallet",
  "sourceName": "contracts/Wallet.sol",
  "abi": [
    {
      "stateMutability": "payable",
      "type": "fallback"
    },
    {
      "inputs": [],
      "name": "getBalanceETH",
      "outputs": [
        {
          "internalType": "uint256",
          "name": "",
          "type": "uint256"
        }
      ],
      "stateMutability": "view",
      "type": "function"
    },
    {
      "inputs": [],
      "name": "getBalanceUSDT",
      "outputs": [
        {
          "internalType": "uint256",
          "name": "",
          "type": "uint256"
        }
      ],
      "stateMutability": "view",
      "type": "function"
    },
    {
      "inputs": [
        {
          "internalType": "uint256",
          "name": "_amount",
          "type": "uint256"
        }
      ],
      "name": "setUSDT",
      "outputs": [],
      "stateMutability": "nonpayable",
      "type": "function"
    },
    {
      "inputs": [
        {
          "internalType": "address payable",
          "name": "_to",
          "type": "address"
        },
        {
          "internalType": "uint256",
          "name": "_amount",
          "type": "uint256"
        }
      ],
      "name": "withdrawMoney",
      "outputs": [],
      "stateMutability": "nonpayable",
      "type": "function"
    },
    {
      "stateMutability": "payable",
      "type": "receive"
    }
  ],
  "bytecode": "0x608060405234801561001057600080fd5b506105d9806100206000396000f3fe6080604052600436106100435760003560e01c806324c33db5146100a3578063a00ebc3c146100cc578063acd1f254146100f7578063f274c89714610122576100a1565b366100a157346000803373ffffffffffffffffffffffffffffffffffffffff1673ffffffffffffffffffffffffffffffffffffffff16815260200190815260200160002060000160008282546100999190610398565b925050819055005b005b3480156100af57600080fd5b506100ca60048036038101906100c591906103fd565b61014b565b005b3480156100d857600080fd5b506100e16101a6565b6040516100ee9190610439565b60405180910390f35b34801561010357600080fd5b5061010c6101ef565b6040516101199190610439565b60405180910390f35b34801561012e57600080fd5b50610149600480360381019061014491906104b2565b610238565b005b806000803373ffffffffffffffffffffffffffffffffffffffff1673ffffffffffffffffffffffffffffffffffffffff168152602001908152602001600020600101600082825461019c9190610398565b9250508190555050565b60008060003373ffffffffffffffffffffffffffffffffffffffff1673ffffffffffffffffffffffffffffffffffffffff16815260200190815260200160002060010154905090565b60008060003373ffffffffffffffffffffffffffffffffffffffff1673ffffffffffffffffffffffffffffffffffffffff16815260200190815260200160002060000154905090565b6000803373ffffffffffffffffffffffffffffffffffffffff1673ffffffffffffffffffffffffffffffffffffffff168152602001908152602001600020600001548111156102bc576040517f08c379a00000000000000000000000000000000000000000000000000000000081526004016102b39061054f565b60405180910390fd5b806000803373ffffffffffffffffffffffffffffffffffffffff1673ffffffffffffffffffffffffffffffffffffffff168152602001908152602001600020600001600082825461030d919061056f565b925050819055508173ffffffffffffffffffffffffffffffffffffffff166108fc829081150290604051600060405180830381858888f1935050505015801561035a573d6000803e3d6000fd5b505050565b6000819050919050565b7f4e487b7100000000000000000000000000000000000000000000000000000000600052601160045260246000fd5b60006103a38261035f565b91506103ae8361035f565b92508282019050808211156103c6576103c5610369565b5b92915050565b600080fd5b6103da8161035f565b81146103e557600080fd5b50565b6000813590506103f7816103d1565b92915050565b600060208284031215610413576104126103cc565b5b6000610421848285016103e8565b91505092915050565b6104338161035f565b82525050565b600060208201905061044e600083018461042a565b92915050565b600073ffffffffffffffffffffffffffffffffffffffff82169050919050565b600061047f82610454565b9050919050565b61048f81610474565b811461049a57600080fd5b50565b6000813590506104ac81610486565b92915050565b600080604083850312156104c9576104c86103cc565b5b60006104d78582860161049d565b92505060206104e8858286016103e8565b9150509250929050565b600082825260208201905092915050565b7f4e6f7420656e6f756768742066756e6473000000000000000000000000000000600082015250565b60006105396011836104f2565b915061054482610503565b602082019050919050565b600060208201905081810360008301526105688161052c565b9050919050565b600061057a8261035f565b91506105858361035f565b925082820390508181111561059d5761059c610369565b5b9291505056fea2646970667358221220579a5b7146bde3d7e5534cfec58913176edb3d7ab2d42dc1e18b0de0bb04214f64736f6c63430008120033",
  "linkReferences": {},
  "deployedLinkReferences": {}
}