{
  "_format": "hh-sol-artifact-1",
  "contractName": "Wallet",
  "sourceName": "contracts/Wallet.sol",
  "abi": [
    {
      "stateMutability": "payable",
      "type": "fallback"
    },
    {
      "inputs": [],
      "name": "getBalanceETH",
      "outputs": [
        {
          "internalType": "uint256",
          "name": "",
          "type": "uint256"
        }
      ],
      "stateMutability": "view",
      "type": "function"
    },
    {
      "inputs": [],
      "name": "getBalanceUSDT",
      "outputs": [
        {
          "internalType": "uint256",
          "name": "",
          "type": "uint256"
        }
      ],
      "stateMutability": "view",
      "type": "function"
    },
    {
      "inputs": [
        {
          "internalType": "uint256",
          "name": "_amount",
          "type": "uint256"
        }
      ],
      "name": "setUSDT",
      "outputs": [],
      "stateMutability": "nonpayable",
      "type": "function"
    },
    {
      "inputs": [
        {
          "internalType": "address payable",
          "name": "_to",
          "type": "address"
        },
        {
          "internalType": "uint256",
          "name": "_amount",
          "type": "uint256"
        }
      ],
      "name": "withdrawETH",
      "outputs": [],
      "stateMutability": "nonpayable",
      "type": "function"
    },
    {
      "inputs": [
        {
          "internalType": "address payable",
          "name": "_to",
          "type": "address"
        },
        {
          "internalType": "uint256",
          "name": "_amount",
          "type": "uint256"
        }
      ],
      "name": "withdrawUSDT",
      "outputs": [],
      "stateMutability": "nonpayable",
      "type": "function"
    },
    {
      "stateMutability": "payable",
      "type": "receive"
    }
  ],
  "bytecode": "0x608060405234801561001057600080fd5b506107a0806100206000396000f3fe60806040526004361061004e5760003560e01c80631481794e146100ae57806324c33db5146100d75780634782f77914610100578063a00ebc3c14610129578063acd1f25414610154576100ac565b366100ac57346000803373ffffffffffffffffffffffffffffffffffffffff1673ffffffffffffffffffffffffffffffffffffffff16815260200190815260200160002060000160008282546100a491906104f3565b925050819055005b005b3480156100ba57600080fd5b506100d560048036038101906100d091906105b6565b61017f565b005b3480156100e357600080fd5b506100fe60048036038101906100f991906105f6565b6102a6565b005b34801561010c57600080fd5b50610127600480360381019061012291906105b6565b610301565b005b34801561013557600080fd5b5061013e610428565b60405161014b9190610632565b60405180910390f35b34801561016057600080fd5b50610169610471565b6040516101769190610632565b60405180910390f35b6000803373ffffffffffffffffffffffffffffffffffffffff1673ffffffffffffffffffffffffffffffffffffffff16815260200190815260200160002060010154811115610203576040517f08c379a00000000000000000000000000000000000000000000000000000000081526004016101fa906106aa565b60405180910390fd5b806000803373ffffffffffffffffffffffffffffffffffffffff1673ffffffffffffffffffffffffffffffffffffffff168152602001908152602001600020600101600082825461025491906106ca565b925050819055508173ffffffffffffffffffffffffffffffffffffffff166108fc829081150290604051600060405180830381858888f193505050501580156102a1573d6000803e3d6000fd5b505050565b806000803373ffffffffffffffffffffffffffffffffffffffff1673ffffffffffffffffffffffffffffffffffffffff16815260200190815260200160002060010160008282546102f791906104f3565b9250508190555050565b6000803373ffffffffffffffffffffffffffffffffffffffff1673ffffffffffffffffffffffffffffffffffffffff16815260200190815260200160002060000154811115610385576040517f08c379a000000000000000000000000000000000000000000000000000000000815260040161037c9061074a565b60405180910390fd5b806000803373ffffffffffffffffffffffffffffffffffffffff1673ffffffffffffffffffffffffffffffffffffffff16815260200190815260200160002060000160008282546103d691906106ca565b925050819055508173ffffffffffffffffffffffffffffffffffffffff166108fc829081150290604051600060405180830381858888f19350505050158015610423573d6000803e3d6000fd5b505050565b60008060003373ffffffffffffffffffffffffffffffffffffffff1673ffffffffffffffffffffffffffffffffffffffff16815260200190815260200160002060010154905090565b60008060003373ffffffffffffffffffffffffffffffffffffffff1673ffffffffffffffffffffffffffffffffffffffff16815260200190815260200160002060000154905090565b6000819050919050565b7f4e487b7100000000000000000000000000000000000000000000000000000000600052601160045260246000fd5b60006104fe826104ba565b9150610509836104ba565b9250828201905080821115610521576105206104c4565b5b92915050565b600080fd5b600073ffffffffffffffffffffffffffffffffffffffff82169050919050565b60006105578261052c565b9050919050565b6105678161054c565b811461057257600080fd5b50565b6000813590506105848161055e565b92915050565b610593816104ba565b811461059e57600080fd5b50565b6000813590506105b08161058a565b92915050565b600080604083850312156105cd576105cc610527565b5b60006105db85828601610575565b92505060206105ec858286016105a1565b9150509250929050565b60006020828403121561060c5761060b610527565b5b600061061a848285016105a1565b91505092915050565b61062c816104ba565b82525050565b60006020820190506106476000830184610623565b92915050565b600082825260208201905092915050565b7f4e6f7420656e6f75676874207573647400000000000000000000000000000000600082015250565b600061069460108361064d565b915061069f8261065e565b602082019050919050565b600060208201905081810360008301526106c381610687565b9050919050565b60006106d5826104ba565b91506106e0836104ba565b92508282039050818111156106f8576106f76104c4565b5b92915050565b7f4e6f7420656e6f75676874206574680000000000000000000000000000000000600082015250565b6000610734600f8361064d565b915061073f826106fe565b602082019050919050565b6000602082019050818103600083015261076381610727565b905091905056fea26469706673582212206daa1189db6d2767117613494e0020f5799a628dce8562ca9a655e2195b9989664736f6c63430008120033",
  "linkReferences": {},
  "deployedLinkReferences": {}
}